{
  "contractName": "CarDealer",
  "abi": [
    {
      "anonymous": false,
      "inputs": [
        {
          "indexed": false,
          "internalType": "uint256",
          "name": "id",
          "type": "uint256"
        },
        {
          "indexed": false,
          "internalType": "address",
          "name": "buyer",
          "type": "address"
        }
      ],
      "name": "CarBought",
      "type": "event"
    },
    {
      "anonymous": false,
      "inputs": [
        {
          "indexed": false,
          "internalType": "uint256",
          "name": "id",
          "type": "uint256"
        },
        {
          "indexed": false,
          "internalType": "string",
          "name": "name",
          "type": "string"
        },
        {
          "indexed": false,
          "internalType": "uint256",
          "name": "price",
          "type": "uint256"
        },
        {
          "indexed": false,
          "internalType": "string",
          "name": "imageUrl",
          "type": "string"
        },
        {
          "indexed": false,
          "internalType": "string",
          "name": "distanceDriven",
          "type": "string"
        },
        {
          "indexed": false,
          "internalType": "string",
          "name": "condition",
          "type": "string"
        },
        {
          "indexed": false,
          "internalType": "string",
          "name": "location",
          "type": "string"
        },
        {
          "indexed": false,
          "internalType": "string",
          "name": "typeOfGear",
          "type": "string"
        },
        {
          "indexed": false,
          "internalType": "string",
          "name": "fuelType",
          "type": "string"
        },
        {
          "indexed": false,
          "internalType": "string",
          "name": "year",
          "type": "string"
        }
      ],
      "name": "CarRegistered",
      "type": "event"
    },
    {
      "anonymous": false,
      "inputs": [
        {
          "indexed": false,
          "internalType": "uint256",
          "name": "id",
          "type": "uint256"
        }
      ],
      "name": "CarReturned",
      "type": "event"
    },
    {
      "inputs": [
        {
          "internalType": "address",
          "name": "",
          "type": "address"
        },
        {
          "internalType": "uint256",
          "name": "",
          "type": "uint256"
        }
      ],
      "name": "boughtCars",
      "outputs": [
        {
          "internalType": "uint256",
          "name": "id",
          "type": "uint256"
        },
        {
          "internalType": "address",
          "name": "owner",
          "type": "address"
        },
        {
          "internalType": "string",
          "name": "name",
          "type": "string"
        },
        {
          "internalType": "uint256",
          "name": "price",
          "type": "uint256"
        },
        {
          "internalType": "bool",
          "name": "isAvailable",
          "type": "bool"
        },
        {
          "internalType": "string",
          "name": "imageUrl",
          "type": "string"
        },
        {
          "internalType": "string",
          "name": "distanceDriven",
          "type": "string"
        },
        {
          "internalType": "string",
          "name": "condition",
          "type": "string"
        },
        {
          "internalType": "string",
          "name": "location",
          "type": "string"
        },
        {
          "internalType": "string",
          "name": "typeOfGear",
          "type": "string"
        },
        {
          "internalType": "string",
          "name": "fuelType",
          "type": "string"
        },
        {
          "internalType": "string",
          "name": "year",
          "type": "string"
        }
      ],
      "stateMutability": "view",
      "type": "function",
      "constant": true
    },
    {
      "inputs": [],
      "name": "carCount",
      "outputs": [
        {
          "internalType": "uint256",
          "name": "",
          "type": "uint256"
        }
      ],
      "stateMutability": "view",
      "type": "function",
      "constant": true
    },
    {
      "inputs": [
        {
          "internalType": "uint256",
          "name": "",
          "type": "uint256"
        }
      ],
      "name": "cars",
      "outputs": [
        {
          "internalType": "uint256",
          "name": "id",
          "type": "uint256"
        },
        {
          "internalType": "address",
          "name": "owner",
          "type": "address"
        },
        {
          "internalType": "string",
          "name": "name",
          "type": "string"
        },
        {
          "internalType": "uint256",
          "name": "price",
          "type": "uint256"
        },
        {
          "internalType": "bool",
          "name": "isAvailable",
          "type": "bool"
        },
        {
          "internalType": "string",
          "name": "imageUrl",
          "type": "string"
        },
        {
          "internalType": "string",
          "name": "distanceDriven",
          "type": "string"
        },
        {
          "internalType": "string",
          "name": "condition",
          "type": "string"
        },
        {
          "internalType": "string",
          "name": "location",
          "type": "string"
        },
        {
          "internalType": "string",
          "name": "typeOfGear",
          "type": "string"
        },
        {
          "internalType": "string",
          "name": "fuelType",
          "type": "string"
        },
        {
          "internalType": "string",
          "name": "year",
          "type": "string"
        }
      ],
      "stateMutability": "view",
      "type": "function",
      "constant": true
    },
    {
      "inputs": [
        {
          "internalType": "address",
          "name": "",
          "type": "address"
        },
        {
          "internalType": "uint256",
          "name": "",
          "type": "uint256"
        }
      ],
      "name": "ownedCars",
      "outputs": [
        {
          "internalType": "uint256",
          "name": "id",
          "type": "uint256"
        },
        {
          "internalType": "address",
          "name": "owner",
          "type": "address"
        },
        {
          "internalType": "string",
          "name": "name",
          "type": "string"
        },
        {
          "internalType": "uint256",
          "name": "price",
          "type": "uint256"
        },
        {
          "internalType": "bool",
          "name": "isAvailable",
          "type": "bool"
        },
        {
          "internalType": "string",
          "name": "imageUrl",
          "type": "string"
        },
        {
          "internalType": "string",
          "name": "distanceDriven",
          "type": "string"
        },
        {
          "internalType": "string",
          "name": "condition",
          "type": "string"
        },
        {
          "internalType": "string",
          "name": "location",
          "type": "string"
        },
        {
          "internalType": "string",
          "name": "typeOfGear",
          "type": "string"
        },
        {
          "internalType": "string",
          "name": "fuelType",
          "type": "string"
        },
        {
          "internalType": "string",
          "name": "year",
          "type": "string"
        }
      ],
      "stateMutability": "view",
      "type": "function",
      "constant": true
    },
    {
      "inputs": [
        {
          "internalType": "string",
          "name": "_name",
          "type": "string"
        },
        {
          "internalType": "uint256",
          "name": "_price",
          "type": "uint256"
        },
        {
          "internalType": "string",
          "name": "_imageUrl",
          "type": "string"
        },
        {
          "internalType": "string",
          "name": "_distanceDriven",
          "type": "string"
        },
        {
          "internalType": "string",
          "name": "_condition",
          "type": "string"
        },
        {
          "internalType": "string",
          "name": "_location",
          "type": "string"
        },
        {
          "internalType": "string",
          "name": "_typeOfGear",
          "type": "string"
        },
        {
          "internalType": "string",
          "name": "_fuelType",
          "type": "string"
        },
        {
          "internalType": "string",
          "name": "_year",
          "type": "string"
        }
      ],
      "name": "registerCar",
      "outputs": [],
      "stateMutability": "nonpayable",
      "type": "function"
    },
    {
      "inputs": [
        {
          "internalType": "uint256",
          "name": "_id",
          "type": "uint256"
        }
      ],
      "name": "buyCar",
      "outputs": [],
      "stateMutability": "payable",
      "type": "function",
      "payable": true
    },
    {
      "inputs": [],
      "name": "getBoughtCars",
      "outputs": [
        {
          "components": [
            {
              "internalType": "uint256",
              "name": "id",
              "type": "uint256"
            },
            {
              "internalType": "address",
              "name": "owner",
              "type": "address"
            },
            {
              "internalType": "string",
              "name": "name",
              "type": "string"
            },
            {
              "internalType": "uint256",
              "name": "price",
              "type": "uint256"
            },
            {
              "internalType": "bool",
              "name": "isAvailable",
              "type": "bool"
            },
            {
              "internalType": "string",
              "name": "imageUrl",
              "type": "string"
            },
            {
              "internalType": "string",
              "name": "distanceDriven",
              "type": "string"
            },
            {
              "internalType": "string",
              "name": "condition",
              "type": "string"
            },
            {
              "internalType": "string",
              "name": "location",
              "type": "string"
            },
            {
              "internalType": "string",
              "name": "typeOfGear",
              "type": "string"
            },
            {
              "internalType": "string",
              "name": "fuelType",
              "type": "string"
            },
            {
              "internalType": "string",
              "name": "year",
              "type": "string"
            }
          ],
          "internalType": "struct CarDealer.Car[]",
          "name": "",
          "type": "tuple[]"
        }
      ],
      "stateMutability": "view",
      "type": "function",
      "constant": true
    },
    {
      "inputs": [],
      "name": "getOwnedCars",
      "outputs": [
        {
          "components": [
            {
              "internalType": "uint256",
              "name": "id",
              "type": "uint256"
            },
            {
              "internalType": "address",
              "name": "owner",
              "type": "address"
            },
            {
              "internalType": "string",
              "name": "name",
              "type": "string"
            },
            {
              "internalType": "uint256",
              "name": "price",
              "type": "uint256"
            },
            {
              "internalType": "bool",
              "name": "isAvailable",
              "type": "bool"
            },
            {
              "internalType": "string",
              "name": "imageUrl",
              "type": "string"
            },
            {
              "internalType": "string",
              "name": "distanceDriven",
              "type": "string"
            },
            {
              "internalType": "string",
              "name": "condition",
              "type": "string"
            },
            {
              "internalType": "string",
              "name": "location",
              "type": "string"
            },
            {
              "internalType": "string",
              "name": "typeOfGear",
              "type": "string"
            },
            {
              "internalType": "string",
              "name": "fuelType",
              "type": "string"
            },
            {
              "internalType": "string",
              "name": "year",
              "type": "string"
            }
          ],
          "internalType": "struct CarDealer.Car[]",
          "name": "",
          "type": "tuple[]"
        }
      ],
      "stateMutability": "view",
      "type": "function",
      "constant": true
    },
    {
      "inputs": [],
      "name": "getAvailableCars",
      "outputs": [
        {
          "components": [
            {
              "internalType": "uint256",
              "name": "id",
              "type": "uint256"
            },
            {
              "internalType": "address",
              "name": "owner",
              "type": "address"
            },
            {
              "internalType": "string",
              "name": "name",
              "type": "string"
            },
            {
              "internalType": "uint256",
              "name": "price",
              "type": "uint256"
            },
            {
              "internalType": "bool",
              "name": "isAvailable",
              "type": "bool"
            },
            {
              "internalType": "string",
              "name": "imageUrl",
              "type": "string"
            },
            {
              "internalType": "string",
              "name": "distanceDriven",
              "type": "string"
            },
            {
              "internalType": "string",
              "name": "condition",
              "type": "string"
            },
            {
              "internalType": "string",
              "name": "location",
              "type": "string"
            },
            {
              "internalType": "string",
              "name": "typeOfGear",
              "type": "string"
            },
            {
              "internalType": "string",
              "name": "fuelType",
              "type": "string"
            },
            {
              "internalType": "string",
              "name": "year",
              "type": "string"
            }
          ],
          "internalType": "struct CarDealer.Car[]",
          "name": "",
          "type": "tuple[]"
        }
      ],
      "stateMutability": "view",
      "type": "function",
      "constant": true
    },
    {
      "inputs": [],
      "name": "getCars",
      "outputs": [
        {
          "components": [
            {
              "internalType": "uint256",
              "name": "id",
              "type": "uint256"
            },
            {
              "internalType": "address",
              "name": "owner",
              "type": "address"
            },
            {
              "internalType": "string",
              "name": "name",
              "type": "string"
            },
            {
              "internalType": "uint256",
              "name": "price",
              "type": "uint256"
            },
            {
              "internalType": "bool",
              "name": "isAvailable",
              "type": "bool"
            },
            {
              "internalType": "string",
              "name": "imageUrl",
              "type": "string"
            },
            {
              "internalType": "string",
              "name": "distanceDriven",
              "type": "string"
            },
            {
              "internalType": "string",
              "name": "condition",
              "type": "string"
            },
            {
              "internalType": "string",
              "name": "location",
              "type": "string"
            },
            {
              "internalType": "string",
              "name": "typeOfGear",
              "type": "string"
            },
            {
              "internalType": "string",
              "name": "fuelType",
              "type": "string"
            },
            {
              "internalType": "string",
              "name": "year",
              "type": "string"
            }
          ],
          "internalType": "struct CarDealer.Car[]",
          "name": "",
          "type": "tuple[]"
        }
      ],
      "stateMutability": "view",
      "type": "function",
      "constant": true
    },
    {
      "inputs": [
        {
          "internalType": "uint256",
          "name": "_id",
          "type": "uint256"
        }
      ],
      "name": "getCarById",
      "outputs": [
        {
          "components": [
            {
              "internalType": "uint256",
              "name": "id",
              "type": "uint256"
            },
            {
              "internalType": "address",
              "name": "owner",
              "type": "address"
            },
            {
              "internalType": "string",
              "name": "name",
              "type": "string"
            },
            {
              "internalType": "uint256",
              "name": "price",
              "type": "uint256"
            },
            {
              "internalType": "bool",
              "name": "isAvailable",
              "type": "bool"
            },
            {
              "internalType": "string",
              "name": "imageUrl",
              "type": "string"
            },
            {
              "internalType": "string",
              "name": "distanceDriven",
              "type": "string"
            },
            {
              "internalType": "string",
              "name": "condition",
              "type": "string"
            },
            {
              "internalType": "string",
              "name": "location",
              "type": "string"
            },
            {
              "internalType": "string",
              "name": "typeOfGear",
              "type": "string"
            },
            {
              "internalType": "string",
              "name": "fuelType",
              "type": "string"
            },
            {
              "internalType": "string",
              "name": "year",
              "type": "string"
            }
          ],
          "internalType": "struct CarDealer.Car",
          "name": "",
          "type": "tuple"
        }
      ],
      "stateMutability": "view",
      "type": "function",
      "constant": true
    }
  ],
  "bytecode": "0x608060405234801561001057600080fd5b506149f2806100206000396000f3fe60806040526004361061009c5760003560e01c806390d90a5a1161006457806390d90a5a1461017b57806394afc381146101c3578063a5adf8ea146101ee578063b66935ed14610219578063f54bf18b14610261578063f7746e361461028a5761009c565b806317c39286146100a1578063297a1f56146100cc578063433b8046146100f75780636c231060146101225780638154ab0f1461013e575b600080fd5b3480156100ad57600080fd5b506100b66102d2565b6040516100c39190614462565b60405180910390f35b3480156100d857600080fd5b506100e1610902565b6040516100ee91906144e6565b60405180910390f35b34801561010357600080fd5b5061010c610908565b6040516101199190614462565b60405180910390f35b61013c60048036038101906101379190613ffa565b610fd5565b005b34801561014a57600080fd5b5061016560048036038101906101609190613ffa565b611380565b60405161017291906144c4565b60405180910390f35b34801561018757600080fd5b506101a2600480360381019061019d9190613e38565b611913565b6040516101ba9c9b9a9998979695949392919061452a565b60405180910390f35b3480156101cf57600080fd5b506101d8611dfd565b6040516101e59190614462565b60405180910390f35b3480156101fa57600080fd5b506102036123af565b6040516102109190614462565b60405180910390f35b34801561022557600080fd5b50610240600480360381019061023b9190613e38565b612961565b6040516102589c9b9a9998979695949392919061452a565b60405180910390f35b34801561026d57600080fd5b5061028860048036038101906102839190613e74565b612e4b565b005b34801561029657600080fd5b506102b160048036038101906102ac9190613ffa565b6132ca565b6040516102c99c9b9a9998979695949392919061452a565b60405180910390f35b6060600060035467ffffffffffffffff811115610318577f4e487b7100000000000000000000000000000000000000000000000000000000600052604160045260246000fd5b60405190808252806020026020018201604052801561035157816020015b61033e613bbd565b8152602001906001900390816103365790505b5090506000600190505b60035481116108fa5760008082815260200190815260200160002060405180610180016040529081600082015481526020016001820160009054906101000a900473ffffffffffffffffffffffffffffffffffffffff1673ffffffffffffffffffffffffffffffffffffffff1673ffffffffffffffffffffffffffffffffffffffff1681526020016002820180546103f290614875565b80601f016020809104026020016040519081016040528092919081815260200182805461041e90614875565b801561046b5780601f106104405761010080835404028352916020019161046b565b820191906000526020600020905b81548152906001019060200180831161044e57829003601f168201915b50505050508152602001600382015481526020016004820160009054906101000a900460ff161515151581526020016005820180546104a990614875565b80601f01602080910402602001604051908101604052809291908181526020018280546104d590614875565b80156105225780601f106104f757610100808354040283529160200191610522565b820191906000526020600020905b81548152906001019060200180831161050557829003601f168201915b5050505050815260200160068201805461053b90614875565b80601f016020809104026020016040519081016040528092919081815260200182805461056790614875565b80156105b45780601f10610589576101008083540402835291602001916105b4565b820191906000526020600020905b81548152906001019060200180831161059757829003601f168201915b505050505081526020016007820180546105cd90614875565b80601f01602080910402602001604051908101604052809291908181526020018280546105f990614875565b80156106465780601f1061061b57610100808354040283529160200191610646565b820191906000526020600020905b81548152906001019060200180831161062957829003601f168201915b5050505050815260200160088201805461065f90614875565b80601f016020809104026020016040519081016040528092919081815260200182805461068b90614875565b80156106d85780601f106106ad576101008083540402835291602001916106d8565b820191906000526020600020905b8154815290600101906020018083116106bb57829003601f168201915b505050505081526020016009820180546106f190614875565b80601f016020809104026020016040519081016040528092919081815260200182805461071d90614875565b801561076a5780601f1061073f5761010080835404028352916020019161076a565b820191906000526020600020905b81548152906001019060200180831161074d57829003601f168201915b50505050508152602001600a8201805461078390614875565b80601f01602080910402602001604051908101604052809291908181526020018280546107af90614875565b80156107fc5780601f106107d1576101008083540402835291602001916107fc565b820191906000526020600020905b8154815290600101906020018083116107df57829003601f168201915b50505050508152602001600b8201805461081590614875565b80601f016020809104026020016040519081016040528092919081815260200182805461084190614875565b801561088e5780601f106108635761010080835404028352916020019161088e565b820191906000526020600020905b81548152906001019060200180831161087157829003601f168201915b505050505081525050826001836108a591906147b7565b815181106108dc577f4e487b7100000000000000000000000000000000000000000000000000000000600052603260045260246000fd5b602002602001018190525080806108f2906148a7565b91505061035b565b508091505090565b60035481565b6060600060035467ffffffffffffffff81111561094e577f4e487b7100000000000000000000000000000000000000000000000000000000600052604160045260246000fd5b60405190808252806020026020018201604052801561098757816020015b610974613bbd565b81526020019060019003908161096c5790505b509050600080600190505b6003548111610fc9573373ffffffffffffffffffffffffffffffffffffffff1660008083815260200190815260200160002060010160009054906101000a900473ffffffffffffffffffffffffffffffffffffffff1673ffffffffffffffffffffffffffffffffffffffff1614158015610a2b575060008082815260200190815260200160002060040160009054906101000a900460ff165b15610fb65760008082815260200190815260200160002060405180610180016040529081600082015481526020016001820160009054906101000a900473ffffffffffffffffffffffffffffffffffffffff1673ffffffffffffffffffffffffffffffffffffffff1673ffffffffffffffffffffffffffffffffffffffff168152602001600282018054610abe90614875565b80601f0160208091040260200160405190810160405280929190818152602001828054610aea90614875565b8015610b375780601f10610b0c57610100808354040283529160200191610b37565b820191906000526020600020905b815481529060010190602001808311610b1a57829003601f168201915b50505050508152602001600382015481526020016004820160009054906101000a900460ff16151515158152602001600582018054610b7590614875565b80601f0160208091040260200160405190810160405280929190818152602001828054610ba190614875565b8015610bee5780601f10610bc357610100808354040283529160200191610bee565b820191906000526020600020905b815481529060010190602001808311610bd157829003601f168201915b50505050508152602001600682018054610c0790614875565b80601f0160208091040260200160405190810160405280929190818152602001828054610c3390614875565b8015610c805780601f10610c5557610100808354040283529160200191610c80565b820191906000526020600020905b815481529060010190602001808311610c6357829003601f168201915b50505050508152602001600782018054610c9990614875565b80601f0160208091040260200160405190810160405280929190818152602001828054610cc590614875565b8015610d125780601f10610ce757610100808354040283529160200191610d12565b820191906000526020600020905b815481529060010190602001808311610cf557829003601f168201915b50505050508152602001600882018054610d2b90614875565b80601f0160208091040260200160405190810160405280929190818152602001828054610d5790614875565b8015610da45780601f10610d7957610100808354040283529160200191610da4565b820191906000526020600020905b815481529060010190602001808311610d8757829003601f168201915b50505050508152602001600982018054610dbd90614875565b80601f0160208091040260200160405190810160405280929190818152602001828054610de990614875565b8015610e365780601f10610e0b57610100808354040283529160200191610e36565b820191906000526020600020905b815481529060010190602001808311610e1957829003601f168201915b50505050508152602001600a82018054610e4f90614875565b80601f0160208091040260200160405190810160405280929190818152602001828054610e7b90614875565b8015610ec85780601f10610e9d57610100808354040283529160200191610ec8565b820191906000526020600020905b815481529060010190602001808311610eab57829003601f168201915b50505050508152602001600b82018054610ee190614875565b80601f0160208091040260200160405190810160405280929190818152602001828054610f0d90614875565b8015610f5a5780601f10610f2f57610100808354040283529160200191610f5a565b820191906000526020600020905b815481529060010190602001808311610f3d57829003601f168201915b505050505081525050838381518110610f9c577f4e487b7100000000000000000000000000000000000000000000000000000000600052603260045260246000fd5b60200260200101819052508180610fb2906148a7565b9250505b8080610fc1906148a7565b915050610992565b50808252819250505090565b60008082815260200190815260200160002060040160009054906101000a900460ff16611037576040517f08c379a000000000000000000000000000000000000000000000000000000000815260040161102e90614484565b60405180910390fd5b600080600083815260200190815260200160002060040160006101000a81548160ff021916908315150217905550600160003373ffffffffffffffffffffffffffffffffffffffff1673ffffffffffffffffffffffffffffffffffffffff16815260200190815260200160002060008083815260200190815260200160002090806001815401808255809150506001900390600052602060002090600c0201600090919091909150600082015481600001556001820160009054906101000a900473ffffffffffffffffffffffffffffffffffffffff168160010160006101000a81548173ffffffffffffffffffffffffffffffffffffffff021916908373ffffffffffffffffffffffffffffffffffffffff160217905550600282018160020190805461116490614875565b61116f929190613c36565b50600382015481600301556004820160009054906101000a900460ff168160040160006101000a81548160ff02191690831515021790555060058201816005019080546111bb90614875565b6111c6929190613c36565b5060068201816006019080546111db90614875565b6111e6929190613c36565b5060078201816007019080546111fb90614875565b611206929190613c36565b50600882018160080190805461121b90614875565b611226929190613c36565b50600982018160090190805461123b90614875565b611246929190613c36565b50600a820181600a0190805461125b90614875565b611266929190613c36565b50600b820181600b0190805461127b90614875565b611286929190613c36565b50505060008082815260200190815260200160002060010160009054906101000a900473ffffffffffffffffffffffffffffffffffffffff1673ffffffffffffffffffffffffffffffffffffffff166108fc349081150290604051600060405180830381858888f19350505050158015611304573d6000803e3d6000fd5b5061134460008083815260200190815260200160002060010160009054906101000a900473ffffffffffffffffffffffffffffffffffffffff1682613797565b7f01b05bd44c533e1bd97c0aa427a47ba0f229a14f0efd9a273704ac2f568c23048133604051611375929190614501565b60405180910390a150565b611388613bbd565b60008211801561139a57506003548211155b6113d9576040517f08c379a00000000000000000000000000000000000000000000000000000000081526004016113d0906144a4565b60405180910390fd5b60008083815260200190815260200160002060405180610180016040529081600082015481526020016001820160009054906101000a900473ffffffffffffffffffffffffffffffffffffffff1673ffffffffffffffffffffffffffffffffffffffff1673ffffffffffffffffffffffffffffffffffffffff16815260200160028201805461146790614875565b80601f016020809104026020016040519081016040528092919081815260200182805461149390614875565b80156114e05780601f106114b5576101008083540402835291602001916114e0565b820191906000526020600020905b8154815290600101906020018083116114c357829003601f168201915b50505050508152602001600382015481526020016004820160009054906101000a900460ff1615151515815260200160058201805461151e90614875565b80601f016020809104026020016040519081016040528092919081815260200182805461154a90614875565b80156115975780601f1061156c57610100808354040283529160200191611597565b820191906000526020600020905b81548152906001019060200180831161157a57829003601f168201915b505050505081526020016006820180546115b090614875565b80601f01602080910402602001604051908101604052809291908181526020018280546115dc90614875565b80156116295780601f106115fe57610100808354040283529160200191611629565b820191906000526020600020905b81548152906001019060200180831161160c57829003601f168201915b5050505050815260200160078201805461164290614875565b80601f016020809104026020016040519081016040528092919081815260200182805461166e90614875565b80156116bb5780601f10611690576101008083540402835291602001916116bb565b820191906000526020600020905b81548152906001019060200180831161169e57829003601f168201915b505050505081526020016008820180546116d490614875565b80601f016020809104026020016040519081016040528092919081815260200182805461170090614875565b801561174d5780601f106117225761010080835404028352916020019161174d565b820191906000526020600020905b81548152906001019060200180831161173057829003601f168201915b5050505050815260200160098201805461176690614875565b80601f016020809104026020016040519081016040528092919081815260200182805461179290614875565b80156117df5780601f106117b4576101008083540402835291602001916117df565b820191906000526020600020905b8154815290600101906020018083116117c257829003601f168201915b50505050508152602001600a820180546117f890614875565b80601f016020809104026020016040519081016040528092919081815260200182805461182490614875565b80156118715780601f1061184657610100808354040283529160200191611871565b820191906000526020600020905b81548152906001019060200180831161185457829003601f168201915b50505050508152602001600b8201805461188a90614875565b80601f01602080910402602001604051908101604052809291908181526020018280546118b690614875565b80156119035780601f106118d857610100808354040283529160200191611903565b820191906000526020600020905b8154815290600101906020018083116118e657829003601f168201915b5050505050815250509050919050565b6001602052816000526040600020818154811061192f57600080fd5b90600052602060002090600c0201600091509150508060000154908060010160009054906101000a900473ffffffffffffffffffffffffffffffffffffffff169080600201805461197f90614875565b80601f01602080910402602001604051908101604052809291908181526020018280546119ab90614875565b80156119f85780601f106119cd576101008083540402835291602001916119f8565b820191906000526020600020905b8154815290600101906020018083116119db57829003601f168201915b5050505050908060030154908060040160009054906101000a900460ff1690806005018054611a2690614875565b80601f0160208091040260200160405190810160405280929190818152602001828054611a5290614875565b8015611a9f5780601f10611a7457610100808354040283529160200191611a9f565b820191906000526020600020905b815481529060010190602001808311611a8257829003601f168201915b505050505090806006018054611ab490614875565b80601f0160208091040260200160405190810160405280929190818152602001828054611ae090614875565b8015611b2d5780601f10611b0257610100808354040283529160200191611b2d565b820191906000526020600020905b815481529060010190602001808311611b1057829003601f168201915b505050505090806007018054611b4290614875565b80601f0160208091040260200160405190810160405280929190818152602001828054611b6e90614875565b8015611bbb5780601f10611b9057610100808354040283529160200191611bbb565b820191906000526020600020905b815481529060010190602001808311611b9e57829003601f168201915b505050505090806008018054611bd090614875565b80601f0160208091040260200160405190810160405280929190818152602001828054611bfc90614875565b8015611c495780601f10611c1e57610100808354040283529160200191611c49565b820191906000526020600020905b815481529060010190602001808311611c2c57829003601f168201915b505050505090806009018054611c5e90614875565b80601f0160208091040260200160405190810160405280929190818152602001828054611c8a90614875565b8015611cd75780601f10611cac57610100808354040283529160200191611cd7565b820191906000526020600020905b815481529060010190602001808311611cba57829003601f168201915b50505050509080600a018054611cec90614875565b80601f0160208091040260200160405190810160405280929190818152602001828054611d1890614875565b8015611d655780601f10611d3a57610100808354040283529160200191611d65565b820191906000526020600020905b815481529060010190602001808311611d4857829003601f168201915b50505050509080600b018054611d7a90614875565b80601f0160208091040260200160405190810160405280929190818152602001828054611da690614875565b8015611df35780601f10611dc857610100808354040283529160200191611df3565b820191906000526020600020905b815481529060010190602001808311611dd657829003601f168201915b505050505090508c565b6060600160003373ffffffffffffffffffffffffffffffffffffffff1673ffffffffffffffffffffffffffffffffffffffff168152602001908152602001600020805480602002602001604051908101604052809291908181526020016000905b828210156123a657838290600052602060002090600c020160405180610180016040529081600082015481526020016001820160009054906101000a900473ffffffffffffffffffffffffffffffffffffffff1673ffffffffffffffffffffffffffffffffffffffff1673ffffffffffffffffffffffffffffffffffffffff168152602001600282018054611ef290614875565b80601f0160208091040260200160405190810160405280929190818152602001828054611f1e90614875565b8015611f6b5780601f10611f4057610100808354040283529160200191611f6b565b820191906000526020600020905b815481529060010190602001808311611f4e57829003601f168201915b50505050508152602001600382015481526020016004820160009054906101000a900460ff16151515158152602001600582018054611fa990614875565b80601f0160208091040260200160405190810160405280929190818152602001828054611fd590614875565b80156120225780601f10611ff757610100808354040283529160200191612022565b820191906000526020600020905b81548152906001019060200180831161200557829003601f168201915b5050505050815260200160068201805461203b90614875565b80601f016020809104026020016040519081016040528092919081815260200182805461206790614875565b80156120b45780601f10612089576101008083540402835291602001916120b4565b820191906000526020600020905b81548152906001019060200180831161209757829003601f168201915b505050505081526020016007820180546120cd90614875565b80601f01602080910402602001604051908101604052809291908181526020018280546120f990614875565b80156121465780601f1061211b57610100808354040283529160200191612146565b820191906000526020600020905b81548152906001019060200180831161212957829003601f168201915b5050505050815260200160088201805461215f90614875565b80601f016020809104026020016040519081016040528092919081815260200182805461218b90614875565b80156121d85780601f106121ad576101008083540402835291602001916121d8565b820191906000526020600020905b8154815290600101906020018083116121bb57829003601f168201915b505050505081526020016009820180546121f190614875565b80601f016020809104026020016040519081016040528092919081815260200182805461221d90614875565b801561226a5780601f1061223f5761010080835404028352916020019161226a565b820191906000526020600020905b81548152906001019060200180831161224d57829003601f168201915b50505050508152602001600a8201805461228390614875565b80601f01602080910402602001604051908101604052809291908181526020018280546122af90614875565b80156122fc5780601f106122d1576101008083540402835291602001916122fc565b820191906000526020600020905b8154815290600101906020018083116122df57829003601f168201915b50505050508152602001600b8201805461231590614875565b80601f016020809104026020016040519081016040528092919081815260200182805461234190614875565b801561238e5780601f106123635761010080835404028352916020019161238e565b820191906000526020600020905b81548152906001019060200180831161237157829003601f168201915b50505050508152505081526020019060010190611e5e565b50505050905090565b6060600260003373ffffffffffffffffffffffffffffffffffffffff1673ffffffffffffffffffffffffffffffffffffffff168152602001908152602001600020805480602002602001604051908101604052809291908181526020016000905b8282101561295857838290600052602060002090600c020160405180610180016040529081600082015481526020016001820160009054906101000a900473ffffffffffffffffffffffffffffffffffffffff1673ffffffffffffffffffffffffffffffffffffffff1673ffffffffffffffffffffffffffffffffffffffff1681526020016002820180546124a490614875565b80601f01602080910402602001604051908101604052809291908181526020018280546124d090614875565b801561251d5780601f106124f25761010080835404028352916020019161251d565b820191906000526020600020905b81548152906001019060200180831161250057829003601f168201915b50505050508152602001600382015481526020016004820160009054906101000a900460ff1615151515815260200160058201805461255b90614875565b80601f016020809104026020016040519081016040528092919081815260200182805461258790614875565b80156125d45780601f106125a9576101008083540402835291602001916125d4565b820191906000526020600020905b8154815290600101906020018083116125b757829003601f168201915b505050505081526020016006820180546125ed90614875565b80601f016020809104026020016040519081016040528092919081815260200182805461261990614875565b80156126665780601f1061263b57610100808354040283529160200191612666565b820191906000526020600020905b81548152906001019060200180831161264957829003601f168201915b5050505050815260200160078201805461267f90614875565b80601f01602080910402602001604051908101604052809291908181526020018280546126ab90614875565b80156126f85780601f106126cd576101008083540402835291602001916126f8565b820191906000526020600020905b8154815290600101906020018083116126db57829003601f168201915b5050505050815260200160088201805461271190614875565b80601f016020809104026020016040519081016040528092919081815260200182805461273d90614875565b801561278a5780601f1061275f5761010080835404028352916020019161278a565b820191906000526020600020905b81548152906001019060200180831161276d57829003601f168201915b505050505081526020016009820180546127a390614875565b80601f01602080910402602001604051908101604052809291908181526020018280546127cf90614875565b801561281c5780601f106127f15761010080835404028352916020019161281c565b820191906000526020600020905b8154815290600101906020018083116127ff57829003601f168201915b50505050508152602001600a8201805461283590614875565b80601f016020809104026020016040519081016040528092919081815260200182805461286190614875565b80156128ae5780601f10612883576101008083540402835291602001916128ae565b820191906000526020600020905b81548152906001019060200180831161289157829003601f168201915b50505050508152602001600b820180546128c790614875565b80601f01602080910402602001604051908101604052809291908181526020018280546128f390614875565b80156129405780601f1061291557610100808354040283529160200191612940565b820191906000526020600020905b81548152906001019060200180831161292357829003601f168201915b50505050508152505081526020019060010190612410565b50505050905090565b6002602052816000526040600020818154811061297d57600080fd5b90600052602060002090600c0201600091509150508060000154908060010160009054906101000a900473ffffffffffffffffffffffffffffffffffffffff16908060020180546129cd90614875565b80601f01602080910402602001604051908101604052809291908181526020018280546129f990614875565b8015612a465780601f10612a1b57610100808354040283529160200191612a46565b820191906000526020600020905b815481529060010190602001808311612a2957829003601f168201915b5050505050908060030154908060040160009054906101000a900460ff1690806005018054612a7490614875565b80601f0160208091040260200160405190810160405280929190818152602001828054612aa090614875565b8015612aed5780601f10612ac257610100808354040283529160200191612aed565b820191906000526020600020905b815481529060010190602001808311612ad057829003601f168201915b505050505090806006018054612b0290614875565b80601f0160208091040260200160405190810160405280929190818152602001828054612b2e90614875565b8015612b7b5780601f10612b5057610100808354040283529160200191612b7b565b820191906000526020600020905b815481529060010190602001808311612b5e57829003601f168201915b505050505090806007018054612b9090614875565b80601f0160208091040260200160405190810160405280929190818152602001828054612bbc90614875565b8015612c095780601f10612bde57610100808354040283529160200191612c09565b820191906000526020600020905b815481529060010190602001808311612bec57829003601f168201915b505050505090806008018054612c1e90614875565b80601f0160208091040260200160405190810160405280929190818152602001828054612c4a90614875565b8015612c975780601f10612c6c57610100808354040283529160200191612c97565b820191906000526020600020905b815481529060010190602001808311612c7a57829003601f168201915b505050505090806009018054612cac90614875565b80601f0160208091040260200160405190810160405280929190818152602001828054612cd890614875565b8015612d255780601f10612cfa57610100808354040283529160200191612d25565b820191906000526020600020905b815481529060010190602001808311612d0857829003601f168201915b50505050509080600a018054612d3a90614875565b80601f0160208091040260200160405190810160405280929190818152602001828054612d6690614875565b8015612db35780601f10612d8857610100808354040283529160200191612db3565b820191906000526020600020905b815481529060010190602001808311612d9657829003601f168201915b50505050509080600b018054612dc890614875565b80601f0160208091040260200160405190810160405280929190818152602001828054612df490614875565b8015612e415780601f10612e1657610100808354040283529160200191612e41565b820191906000526020600020905b815481529060010190602001808311612e2457829003601f168201915b505050505090508c565b60036000815480929190612e5e906148a7565b919050555060405180610180016040528060035481526020013373ffffffffffffffffffffffffffffffffffffffff1681526020018a81526020018981526020016001151581526020018881526020018781526020018681526020018581526020018481526020018381526020018281525060008060035481526020019081526020016000206000820151816000015560208201518160010160006101000a81548173ffffffffffffffffffffffffffffffffffffffff021916908373ffffffffffffffffffffffffffffffffffffffff1602179055506040820151816002019080519060200190612f51929190613cc3565b506060820151816003015560808201518160040160006101000a81548160ff02191690831515021790555060a0820151816005019080519060200190612f98929190613cc3565b5060c0820151816006019080519060200190612fb5929190613cc3565b5060e0820151816007019080519060200190612fd2929190613cc3565b50610100820151816008019080519060200190612ff0929190613cc3565b5061012082015181600901908051906020019061300e929190613cc3565b5061014082015181600a01908051906020019061302c929190613cc3565b5061016082015181600b01908051906020019061304a929190613cc3565b50905050600260003373ffffffffffffffffffffffffffffffffffffffff1673ffffffffffffffffffffffffffffffffffffffff168152602001908152602001600020600080600354815260200190815260200160002090806001815401808255809150506001900390600052602060002090600c0201600090919091909150600082015481600001556001820160009054906101000a900473ffffffffffffffffffffffffffffffffffffffff168160010160006101000a81548173ffffffffffffffffffffffffffffffffffffffff021916908373ffffffffffffffffffffffffffffffffffffffff160217905550600282018160020190805461314f90614875565b61315a929190613c36565b50600382015481600301556004820160009054906101000a900460ff168160040160006101000a81548160ff02191690831515021790555060058201816005019080546131a690614875565b6131b1929190613c36565b5060068201816006019080546131c690614875565b6131d1929190613c36565b5060078201816007019080546131e690614875565b6131f1929190613c36565b50600882018160080190805461320690614875565b613211929190613c36565b50600982018160090190805461322690614875565b613231929190613c36565b50600a820181600a0190805461324690614875565b613251929190613c36565b50600b820181600b0190805461326690614875565b613271929190613c36565b5050507fd8ec2a34000320d54142b34ed3c0b5da833a763ef065d8183c6a53311c1323296003548a8a8a8a8a8a8a8a8a6040516132b79a9998979695949392919061461c565b60405180910390a1505050505050505050565b60006020528060005260406000206000915090508060000154908060010160009054906101000a900473ffffffffffffffffffffffffffffffffffffffff169080600201805461331990614875565b80601f016020809104026020016040519081016040528092919081815260200182805461334590614875565b80156133925780601f1061336757610100808354040283529160200191613392565b820191906000526020600020905b81548152906001019060200180831161337557829003601f168201915b5050505050908060030154908060040160009054906101000a900460ff16908060050180546133c090614875565b80601f01602080910402602001604051908101604052809291908181526020018280546133ec90614875565b80156134395780601f1061340e57610100808354040283529160200191613439565b820191906000526020600020905b81548152906001019060200180831161341c57829003601f168201915b50505050509080600601805461344e90614875565b80601f016020809104026020016040519081016040528092919081815260200182805461347a90614875565b80156134c75780601f1061349c576101008083540402835291602001916134c7565b820191906000526020600020905b8154815290600101906020018083116134aa57829003601f168201915b5050505050908060070180546134dc90614875565b80601f016020809104026020016040519081016040528092919081815260200182805461350890614875565b80156135555780601f1061352a57610100808354040283529160200191613555565b820191906000526020600020905b81548152906001019060200180831161353857829003601f168201915b50505050509080600801805461356a90614875565b80601f016020809104026020016040519081016040528092919081815260200182805461359690614875565b80156135e35780601f106135b8576101008083540402835291602001916135e3565b820191906000526020600020905b8154815290600101906020018083116135c657829003601f168201915b5050505050908060090180546135f890614875565b80601f016020809104026020016040519081016040528092919081815260200182805461362490614875565b80156136715780601f1061364657610100808354040283529160200191613671565b820191906000526020600020905b81548152906001019060200180831161365457829003601f168201915b50505050509080600a01805461368690614875565b80601f01602080910402602001604051908101604052809291908181526020018280546136b290614875565b80156136ff5780601f106136d4576101008083540402835291602001916136ff565b820191906000526020600020905b8154815290600101906020018083116136e257829003601f168201915b50505050509080600b01805461371490614875565b80601f016020809104026020016040519081016040528092919081815260200182805461374090614875565b801561378d5780601f106137625761010080835404028352916020019161378d565b820191906000526020600020905b81548152906001019060200180831161377057829003601f168201915b505050505090508c565b6000600260008473ffffffffffffffffffffffffffffffffffffffff1673ffffffffffffffffffffffffffffffffffffffff168152602001908152602001600020905060005b8180549050811015613bb75782828281548110613823577f4e487b7100000000000000000000000000000000000000000000000000000000600052603260045260246000fd5b90600052602060002090600c0201600001541415613ba457816001838054905061384d91906147b7565b81548110613884577f4e487b7100000000000000000000000000000000000000000000000000000000600052603260045260246000fd5b90600052602060002090600c02018282815481106138cb577f4e487b7100000000000000000000000000000000000000000000000000000000600052603260045260246000fd5b90600052602060002090600c0201600082015481600001556001820160009054906101000a900473ffffffffffffffffffffffffffffffffffffffff168160010160006101000a81548173ffffffffffffffffffffffffffffffffffffffff021916908373ffffffffffffffffffffffffffffffffffffffff160217905550600282018160020190805461395e90614875565b613969929190613c36565b50600382015481600301556004820160009054906101000a900460ff168160040160006101000a81548160ff02191690831515021790555060058201816005019080546139b590614875565b6139c0929190613c36565b5060068201816006019080546139d590614875565b6139e0929190613c36565b5060078201816007019080546139f590614875565b613a00929190613c36565b506008820181600801908054613a1590614875565b613a20929190613c36565b506009820181600901908054613a3590614875565b613a40929190613c36565b50600a820181600a01908054613a5590614875565b613a60929190613c36565b50600b820181600b01908054613a7590614875565b613a80929190613c36565b5090505081805480613abb577f4e487b7100000000000000000000000000000000000000000000000000000000600052603160045260246000fd5b60019003818190600052602060002090600c02016000808201600090556001820160006101000a81549073ffffffffffffffffffffffffffffffffffffffff0219169055600282016000613b0f9190613d49565b60038201600090556004820160006101000a81549060ff0219169055600582016000613b3b9190613d49565b600682016000613b4b9190613d49565b600782016000613b5b9190613d49565b600882016000613b6b9190613d49565b600982016000613b7b9190613d49565b600a82016000613b8b9190613d49565b600b82016000613b9b9190613d49565b50509055613bb7565b8080613baf906148a7565b9150506137dd565b50505050565b60405180610180016040528060008152602001600073ffffffffffffffffffffffffffffffffffffffff1681526020016060815260200160008152602001600015158152602001606081526020016060815260200160608152602001606081526020016060815260200160608152602001606081525090565b828054613c4290614875565b90600052602060002090601f016020900481019282613c645760008555613cb2565b82601f10613c755780548555613cb2565b82800160010185558215613cb257600052602060002091601f016020900482015b82811115613cb1578254825591600101919060010190613c96565b5b509050613cbf9190613d89565b5090565b828054613ccf90614875565b90600052602060002090601f016020900481019282613cf15760008555613d38565b82601f10613d0a57805160ff1916838001178555613d38565b82800160010185558215613d38579182015b82811115613d37578251825591602001919060010190613d1c565b5b509050613d459190613d89565b5090565b508054613d5590614875565b6000825580601f10613d675750613d86565b601f016020900490600052602060002090810190613d859190613d89565b5b50565b5b80821115613da2576000816000905550600101613d8a565b5090565b6000613db9613db484614721565b6146f0565b905082815260208101848484011115613dd157600080fd5b613ddc848285614833565b509392505050565b600081359050613df38161498e565b92915050565b600082601f830112613e0a57600080fd5b8135613e1a848260208601613da6565b91505092915050565b600081359050613e32816149a5565b92915050565b60008060408385031215613e4b57600080fd5b6000613e5985828601613de4565b9250506020613e6a85828601613e23565b9150509250929050565b60008060008060008060008060006101208a8c031215613e9357600080fd5b60008a013567ffffffffffffffff811115613ead57600080fd5b613eb98c828d01613df9565b9950506020613eca8c828d01613e23565b98505060408a013567ffffffffffffffff811115613ee757600080fd5b613ef38c828d01613df9565b97505060608a013567ffffffffffffffff811115613f1057600080fd5b613f1c8c828d01613df9565b96505060808a013567ffffffffffffffff811115613f3957600080fd5b613f458c828d01613df9565b95505060a08a013567ffffffffffffffff811115613f6257600080fd5b613f6e8c828d01613df9565b94505060c08a013567ffffffffffffffff811115613f8b57600080fd5b613f978c828d01613df9565b93505060e08a013567ffffffffffffffff811115613fb457600080fd5b613fc08c828d01613df9565b9250506101008a013567ffffffffffffffff811115613fde57600080fd5b613fea8c828d01613df9565b9150509295985092959850929598565b60006020828403121561400c57600080fd5b600061401a84828501613e23565b91505092915050565b600061402f83836141da565b905092915050565b614040816147eb565b82525050565b61404f816147eb565b82525050565b600061406082614761565b61406a8185614784565b93508360208202850161407c85614751565b8060005b858110156140b857848403895281516140998582614023565b94506140a483614777565b925060208a01995050600181019050614080565b50829750879550505050505092915050565b6140d3816147fd565b82525050565b6140e2816147fd565b82525050565b60006140f38261476c565b6140fd8185614795565b935061410d818560208601614842565b6141168161497d565b840191505092915050565b600061412c8261476c565b61413681856147a6565b9350614146818560208601614842565b61414f8161497d565b840191505092915050565b60006141676011836147a6565b91507f436172206e6f7420617661696c61626c650000000000000000000000000000006000830152602082019050919050565b60006141a7600e836147a6565b91507f496e76616c6964206361722049440000000000000000000000000000000000006000830152602082019050919050565b6000610180830160008301516141f36000860182614444565b5060208301516142066020860182614037565b506040830151848203604086015261421e82826140e8565b91505060608301516142336060860182614444565b50608083015161424660808601826140ca565b5060a083015184820360a086015261425e82826140e8565b91505060c083015184820360c086015261427882826140e8565b91505060e083015184820360e086015261429282826140e8565b9150506101008301518482036101008601526142ae82826140e8565b9150506101208301518482036101208601526142ca82826140e8565b9150506101408301518482036101408601526142e682826140e8565b91505061016083015184820361016086015261430282826140e8565b9150508091505092915050565b6000610180830160008301516143286000860182614444565b50602083015161433b6020860182614037565b506040830151848203604086015261435382826140e8565b91505060608301516143686060860182614444565b50608083015161437b60808601826140ca565b5060a083015184820360a086015261439382826140e8565b91505060c083015184820360c08601526143ad82826140e8565b91505060e083015184820360e08601526143c782826140e8565b9150506101008301518482036101008601526143e382826140e8565b9150506101208301518482036101208601526143ff82826140e8565b91505061014083015184820361014086015261441b82826140e8565b91505061016083015184820361016086015261443782826140e8565b9150508091505092915050565b61444d81614829565b82525050565b61445c81614829565b82525050565b6000602082019050818103600083015261447c8184614055565b905092915050565b6000602082019050818103600083015261449d8161415a565b9050919050565b600060208201905081810360008301526144bd8161419a565b9050919050565b600060208201905081810360008301526144de818461430f565b905092915050565b60006020820190506144fb6000830184614453565b92915050565b60006040820190506145166000830185614453565b6145236020830184614046565b9392505050565b600061018082019050614540600083018f614453565b61454d602083018e614046565b818103604083015261455f818d614121565b905061456e606083018c614453565b61457b608083018b6140d9565b81810360a083015261458d818a614121565b905081810360c08301526145a18189614121565b905081810360e08301526145b58188614121565b90508181036101008301526145ca8187614121565b90508181036101208301526145df8186614121565b90508181036101408301526145f48185614121565b90508181036101608301526146098184614121565b90509d9c50505050505050505050505050565b600061014082019050614632600083018d614453565b8181036020830152614644818c614121565b9050614653604083018b614453565b8181036060830152614665818a614121565b905081810360808301526146798189614121565b905081810360a083015261468d8188614121565b905081810360c08301526146a18187614121565b905081810360e08301526146b58186614121565b90508181036101008301526146ca8185614121565b90508181036101208301526146df8184614121565b90509b9a5050505050505050505050565b6000604051905081810181811067ffffffffffffffff821117156147175761471661494e565b5b8060405250919050565b600067ffffffffffffffff82111561473c5761473b61494e565b5b601f19601f8301169050602081019050919050565b6000819050602082019050919050565b600081519050919050565b600081519050919050565b6000602082019050919050565b600082825260208201905092915050565b600082825260208201905092915050565b600082825260208201905092915050565b60006147c282614829565b91506147cd83614829565b9250828210156147e0576147df6148f0565b5b828203905092915050565b60006147f682614809565b9050919050565b60008115159050919050565b600073ffffffffffffffffffffffffffffffffffffffff82169050919050565b6000819050919050565b82818337600083830152505050565b60005b83811015614860578082015181840152602081019050614845565b8381111561486f576000848401525b50505050565b6000600282049050600182168061488d57607f821691505b602082108114156148a1576148a061491f565b5b50919050565b60006148b282614829565b91507fffffffffffffffffffffffffffffffffffffffffffffffffffffffffffffffff8214156148e5576148e46148f0565b5b600182019050919050565b7f4e487b7100000000000000000000000000000000000000000000000000000000600052601160045260246000fd5b7f4e487b7100000000000000000000000000000000000000000000000000000000600052602260045260246000fd5b7f4e487b7100000000000000000000000000000000000000000000000000000000600052604160045260246000fd5b6000601f19601f8301169050919050565b614997816147eb565b81146149a257600080fd5b50565b6149ae81614829565b81146149b957600080fd5b5056fea2646970667358221220c5bf005c4b6093c752c0d666bdebda3dc2b6b3c0f18d5e1603cbe51d280a50a064736f6c63430008000033",
  "immutableReferences": {},
  "source": "// SPDX-License-Identifier: MIT\r\npragma solidity ^0.8.0;\r\n\r\ncontract CarDealer {\r\n    struct Car {\r\n        uint id;\r\n        address owner;\r\n        string name;\r\n        uint price;\r\n        bool isAvailable;\r\n        string imageUrl;\r\n        string distanceDriven;\r\n        string condition;\r\n        string location;\r\n        string typeOfGear;\r\n        string fuelType;\r\n        string year;\r\n    }\r\n\r\n    mapping(uint => Car) public cars; // All registered cars\r\n    mapping(address => Car[]) public boughtCars; // Store bought cars for each buyer\r\n    mapping(address => Car[]) public ownedCars; // Store owned cars for each owner\r\n    uint public carCount;\r\n\r\n    event CarRegistered(\r\n        uint id,\r\n        string name,\r\n        uint price,\r\n        string imageUrl,\r\n        string distanceDriven,\r\n        string condition,\r\n        string location,\r\n        string typeOfGear,\r\n        string fuelType,\r\n        string year\r\n    );\r\n    event CarBought(uint id, address buyer);\r\n    event CarReturned(uint id);\r\n\r\n    function registerCar(\r\n        string memory _name,\r\n        uint _price,\r\n        string memory _imageUrl,\r\n        string memory _distanceDriven,\r\n        string memory _condition,\r\n        string memory _location,\r\n        string memory _typeOfGear,\r\n        string memory _fuelType,\r\n        string memory _year\r\n    ) public {\r\n        carCount++;\r\n        cars[carCount] = Car(\r\n            carCount,\r\n            msg.sender,\r\n            _name,\r\n            _price,\r\n            true,\r\n            _imageUrl,\r\n            _distanceDriven,\r\n            _condition,\r\n            _location,\r\n            _typeOfGear,\r\n            _fuelType,\r\n            _year\r\n        );\r\n\r\n        // Track owned cars\r\n        ownedCars[msg.sender].push(cars[carCount]);\r\n\r\n        emit CarRegistered(\r\n            carCount,\r\n            _name,\r\n            _price,\r\n            _imageUrl,\r\n            _distanceDriven,\r\n            _condition,\r\n            _location,\r\n            _typeOfGear,\r\n            _fuelType,\r\n            _year\r\n        );\r\n    }\r\n\r\n    function buyCar(uint _id) public payable {\r\n        require(cars[_id].isAvailable, \"Car not available\");\r\n\r\n        // Mark the car as unavailable\r\n        cars[_id].isAvailable = false;\r\n\r\n        // Add the bought car to the buyer's list of bought cars\r\n        boughtCars[msg.sender].push(cars[_id]);\r\n\r\n        // Transfer payment to the seller\r\n        payable(cars[_id].owner).transfer(msg.value);\r\n\r\n        // Remove the car from the seller's owned cars\r\n        removeCarFromOwned(cars[_id].owner, _id);\r\n\r\n        emit CarBought(_id, msg.sender);\r\n    }\r\n\r\n    function removeCarFromOwned(address owner, uint _id) internal {\r\n        Car[] storage owned = ownedCars[owner];\r\n        for (uint i = 0; i < owned.length; i++) {\r\n            if (owned[i].id == _id) {\r\n                // Move the last element into the place to delete\r\n                owned[i] = owned[owned.length - 1];\r\n                owned.pop(); // Remove the last element\r\n                break; // Exit after removing\r\n            }\r\n        }\r\n    }\r\n\r\n    function getBoughtCars() public view returns (Car[] memory) {\r\n        return boughtCars[msg.sender]; // Return entire Car objects for bought cars\r\n    }\r\n\r\n    function getOwnedCars() public view returns (Car[] memory) {\r\n        return ownedCars[msg.sender]; // Return entire Car objects for owned cars\r\n    }\r\n\r\n    function getAvailableCars() public view returns (Car[] memory) {\r\n        Car[] memory availableCars = new Car[](carCount);\r\n        uint count = 0;\r\n\r\n        for (uint i = 1; i <= carCount; i++) {\r\n            if (cars[i].owner != msg.sender && cars[i].isAvailable) {\r\n                // Check if not owned by sender and available\r\n                availableCars[count] = cars[i];\r\n                count++;\r\n            }\r\n        }\r\n\r\n        // Resize the array to fit the number of available cars\r\n        assembly {\r\n            mstore(availableCars, count)\r\n        }\r\n\r\n        return availableCars;\r\n    }\r\n\r\n    function getCars() public view returns (Car[] memory) {\r\n        Car[] memory carList = new Car[](carCount);\r\n\r\n        for (uint i = 1; i <= carCount; i++) {\r\n            carList[i - 1] = cars[i];\r\n        }\r\n\r\n        return carList;\r\n    }\r\n\r\n    function getCarById(uint _id) public view returns (Car memory) {\r\n        require(_id > 0 && _id <= carCount, \"Invalid car ID\");\r\n\r\n        return cars[_id]; // Return the specific Car object\r\n    }\r\n}\r\n",
  "sourcePath": "C:\\Users\\Dell\\Documents\\WebDev\\blockchain\\bct_project\\smart_contract\\contracts\\CarDealer.sol",
  "compiler": {
    "name": "solc",
    "version": "0.8.0+commit.c7dfd78e.Emscripten.clang"
  },
  "schemaVersion": "3.4.16",
  "updatedAt": "2024-11-09T06:14:30.312Z",
  "networkType": "ethereum",
  "devdoc": {
    "kind": "dev",
    "methods": {},
    "version": 1
  },
  "userdoc": {
    "kind": "user",
    "methods": {},
    "version": 1
  }
}